:020000040800F2
:1000000000200020190300086903000869030008A4
:1000100000000000000000000000000000000000E0
:10002000000000000000000000000000690300085C
:10003000000000000000000069030008DD01000866
:1000400069030008690300086903000869030008E0
:1000500069030008690300086903000869030008D0
:1000600069030008690300086903000869030008C0
:1000700069030008690300086903000869030008B0
:100080006903000869030008000000006903000814
:100090006903000869030008690300086903000890
:1000A0006903000869030008690300086903000880
:1000B0006903000800000000690300080000000058
:0400C0005FF808F1EC
:1000C400002243088B4274D303098B425FD3030A93
:1000D4008B4244D3030B8B4228D3030C8B420DD3A6
:1000E400FF22090212BA030C8B4202D31212090234
:1000F40065D0030B8B4219D300E0090AC30B8B4272
:1001040001D3CB03C01A5241830B8B4201D38B031F
:10011400C01A5241430B8B4201D34B03C01A5241C4
:10012400030B8B4201D30B03C01A5241C30A8B4207
:1001340001D3CB02C01A5241830A8B4201D38B02F2
:10014400C01A5241430A8B4201D34B02C01A524196
:10015400030A8B4201D30B02C01A5241CDD2C30908
:100164008B4201D3CB01C01A524183098B4201D384
:100174008B01C01A524143098B4201D34B01C01A6F
:10018400524103098B4201D30B01C01A5241C308E7
:100194008B4201D3CB00C01A524183088B4201D356
:1001A4008B00C01A524143088B4201D34B00C01A42
:1001B4005241411A00D20146524110467047FFE7AE
:1001C40001B5002000F006F802BDC0460029F7D0B2
:1001D40076E770477047C046074A1388642B02D0FD
:1001E40001331380704700231380044A0133918A3A
:1001F400FF334B409382F5E70400002000080048D9
:100204008023114A1B03516910B50B4353618022AB
:100214000E4B52021A600E4B64211868FFF750FF10
:100224000C4B98420ED8C0210B4A013850600B4841
:100234000906036A1B021B0A0B4303620023936033
:1002440007331360FEE7C046001002400008004870
:1002540000000020FFFFFF0010E000E000ED00E0E0
:1002640013B50124244B25491A68254822431A60F2
:100274005A680A405A601A6822490A401A601A6881
:1002840021490A401A605A6802405A600F22D96A0A
:100294009143D962196B1D4A11401963596B1C4A69
:1002A400A1435963002199600091019111311160BA
:1002B4005A685A605A685A605A6802405A60A022C2
:1002C400596892030A435A608022196852040A4307
:1002D4001A608022920419681142FCD003215A68E2
:1002E4008A435A60022259680A430C215A605A68A8
:1002F4000A40082AFBD113BD001002400CB8FFF8D5
:10030400FFFFC0FFFFFFF6FEFFFFFBFFACFEFFFF9A
:10031400002002400D488546002103E00C4B5B5849
:10032400435004310B480C4B42189A42F6D30B4A03
:1003340002E0002313600432094B9A42F9D3FFF719
:100344008FFF00F011F8FFF75BFFFEE700200020AD
:10035400CC0300080000002004000020040000205A
:1003640008000020FEE7000070B50D4E0D4D00247E
:10037400AD1BAD1005D0A300F35801349847A54236
:10038400F9D100F015F8084E084D0024AD1BAD104E
:1003940005D0A300F35801349847A542F9D170BDA4
:1003A4000000000000000000000000000000000049
:1003B400F8B5C046F8BC08BC9E467047F8B5C046C0
:0803C400F8BC08BC9E4670471E
:0403CC00006CDC02E3
:0400000508000319D3
:00000001FF
